{"contracts/LoanContract.sol":{"LoanContract":{"abi":[{"inputs":[{"internalType":"uint256","name":"_loanAmount","type":"uint256"},{"internalType":"uint256","name":"_interestRate","type":"uint256"},{"internalType":"uint256","name":"_tenure","type":"uint256"},{"internalType":"string","name":"_purpose","type":"string"}],"stateMutability":"nonpayable","type":"constructor"},{"anonymous":false,"inputs":[{"indexed":false,"internalType":"uint256","name":"loanAmount","type":"uint256"},{"indexed":false,"internalType":"uint256","name":"interestRate","type":"uint256"},{"indexed":false,"internalType":"uint256","name":"tenure","type":"uint256"},{"indexed":false,"internalType":"string","name":"purpose","type":"string"},{"indexed":false,"internalType":"uint256","name":"createdAt","type":"uint256"},{"indexed":true,"internalType":"address","name":"borrower","type":"address"}],"name":"LoanCreated","type":"event"},{"inputs":[],"name":"closeLoan","outputs":[],"stateMutability":"nonpayable","type":"function"},{"inputs":[],"name":"getLoanDetails","outputs":[{"components":[{"internalType":"uint256","name":"loanAmount","type":"uint256"},{"internalType":"uint256","name":"interestRate","type":"uint256"},{"internalType":"uint256","name":"tenure","type":"uint256"},{"internalType":"string","name":"purpose","type":"string"},{"internalType":"uint256","name":"createdAt","type":"uint256"},{"internalType":"address","name":"borrower","type":"address"},{"internalType":"bool","name":"isActive","type":"bool"}],"internalType":"struct LoanContract.Loan","name":"","type":"tuple"}],"stateMutability":"view","type":"function"},{"inputs":[],"name":"loan","outputs":[{"internalType":"uint256","name":"loanAmount","type":"uint256"},{"internalType":"uint256","name":"interestRate","type":"uint256"},{"internalType":"uint256","name":"tenure","type":"uint256"},{"internalType":"string","name":"purpose","type":"string"},{"internalType":"uint256","name":"createdAt","type":"uint256"},{"internalType":"address","name":"borrower","type":"address"},{"internalType":"bool","name":"isActive","type":"bool"}],"stateMutability":"view","type":"function"}],"evm":{"bytecode":{"linkReferences":{},"object":"608060405234801561001057600080fd5b50604051610f92380380610f9283398181016040528101906100329190610331565b6040518060e001604052808581526020018481526020018381526020018281526020014281526020013373ffffffffffffffffffffffffffffffffffffffff168152602001600115158152506000808201518160000155602082015181600101556040820151816002015560608201518160030190816100b291906105cb565b506080820151816004015560a08201518160050160006101000a81548173ffffffffffffffffffffffffffffffffffffffff021916908373ffffffffffffffffffffffffffffffffffffffff16021790555060c08201518160050160146101000a81548160ff0219169083151502179055509050503373ffffffffffffffffffffffffffffffffffffffff167f9b95484e9da11541c75becc13134e4e854e45941ac8529b44d0654dc874b856c85858585426040516101759594939291906106f6565b60405180910390a250505050610750565b6000604051905090565b600080fd5b600080fd5b6000819050919050565b6101ad8161019a565b81146101b857600080fd5b50565b6000815190506101ca816101a4565b92915050565b600080fd5b600080fd5b6000601f19601f8301169050919050565b7f4e487b7100000000000000000000000000000000000000000000000000000000600052604160045260246000fd5b610223826101da565b810181811067ffffffffffffffff82111715610242576102416101eb565b5b80604052505050565b6000610255610186565b9050610261828261021a565b919050565b600067ffffffffffffffff821115610281576102806101eb565b5b61028a826101da565b9050602081019050919050565b60005b838110156102b557808201518184015260208101905061029a565b60008484015250505050565b60006102d46102cf84610266565b61024b565b9050828152602081018484840111156102f0576102ef6101d5565b5b6102fb848285610297565b509392505050565b600082601f830112610318576103176101d0565b5b81516103288482602086016102c1565b91505092915050565b6000806000806080858703121561034b5761034a610190565b5b6000610359878288016101bb565b945050602061036a878288016101bb565b935050604061037b878288016101bb565b925050606085015167ffffffffffffffff81111561039c5761039b610195565b5b6103a887828801610303565b91505092959194509250565b600081519050919050565b7f4e487b7100000000000000000000000000000000000000000000000000000000600052602260045260246000fd5b6000600282049050600182168061040657607f821691505b602082108103610419576104186103bf565b5b50919050565b60008190508160005260206000209050919050565b60006020601f8301049050919050565b600082821b905092915050565b6000600883026104817fffffffffffffffffffffffffffffffffffffffffffffffffffffffffffffffff82610444565b61048b8683610444565b95508019841693508086168417925050509392505050565b6000819050919050565b60006104c86104c36104be8461019a565b6104a3565b61019a565b9050919050565b6000819050919050565b6104e2836104ad565b6104f66104ee826104cf565b848454610451565b825550505050565b600090565b61050b6104fe565b6105168184846104d9565b505050565b5b8181101561053a5761052f600082610503565b60018101905061051c565b5050565b601f82111561057f576105508161041f565b61055984610434565b81016020851015610568578190505b61057c61057485610434565b83018261051b565b50505b505050565b600082821c905092915050565b60006105a260001984600802610584565b1980831691505092915050565b60006105bb8383610591565b9150826002028217905092915050565b6105d4826103b4565b67ffffffffffffffff8111156105ed576105ec6101eb565b5b6105f782546103ee565b61060282828561053e565b600060209050601f8311600181146106355760008415610623578287015190505b61062d85826105af565b865550610695565b601f1984166106438661041f565b60005b8281101561066b57848901518255600182019150602085019450602081019050610646565b868310156106885784890151610684601f891682610591565b8355505b6001600288020188555050505b505050505050565b6106a68161019a565b82525050565b600082825260208201905092915050565b60006106c8826103b4565b6106d281856106ac565b93506106e2818560208601610297565b6106eb816101da565b840191505092915050565b600060a08201905061070b600083018861069d565b610718602083018761069d565b610725604083018661069d565b818103606083015261073781856106bd565b9050610746608083018461069d565b9695505050505050565b6108338061075f6000396000f3fe608060405234801561001057600080fd5b50600436106100415760003560e01c8063232fa73314610046578063a3b9e39d14610050578063d285b7b41461006e575b600080fd5b61004e610092565b005b610058610196565b60405161006591906105b6565b60405180910390f35b6100766102db565b604051610089979695949392919061064f565b60405180910390f35b600060050160009054906101000a900473ffffffffffffffffffffffffffffffffffffffff1673ffffffffffffffffffffffffffffffffffffffff163373ffffffffffffffffffffffffffffffffffffffff1614610125576040517f08c379a000000000000000000000000000000000000000000000000000000000815260040161011c90610711565b60405180910390fd5b600060050160149054906101000a900460ff16610177576040517f08c379a000000000000000000000000000000000000000000000000000000000815260040161016e9061077d565b60405180910390fd5b60008060050160146101000a81548160ff021916908315150217905550565b61019e6103c0565b60006040518060e00160405290816000820154815260200160018201548152602001600282015481526020016003820180546101d9906107cc565b80601f0160208091040260200160405190810160405280929190818152602001828054610205906107cc565b80156102525780601f1061022757610100808354040283529160200191610252565b820191906000526020600020905b81548152906001019060200180831161023557829003601f168201915b50505050508152602001600482015481526020016005820160009054906101000a900473ffffffffffffffffffffffffffffffffffffffff1673ffffffffffffffffffffffffffffffffffffffff1673ffffffffffffffffffffffffffffffffffffffff1681526020016005820160149054906101000a900460ff161515151581525050905090565b60008060000154908060010154908060020154908060030180546102fe906107cc565b80601f016020809104026020016040519081016040528092919081815260200182805461032a906107cc565b80156103775780601f1061034c57610100808354040283529160200191610377565b820191906000526020600020905b81548152906001019060200180831161035a57829003601f168201915b5050505050908060040154908060050160009054906101000a900473ffffffffffffffffffffffffffffffffffffffff16908060050160149054906101000a900460ff16905087565b6040518060e001604052806000815260200160008152602001600081526020016060815260200160008152602001600073ffffffffffffffffffffffffffffffffffffffff1681526020016000151581525090565b6000819050919050565b61042881610415565b82525050565b600081519050919050565b600082825260208201905092915050565b60005b8381101561046857808201518184015260208101905061044d565b60008484015250505050565b6000601f19601f8301169050919050565b60006104908261042e565b61049a8185610439565b93506104aa81856020860161044a565b6104b381610474565b840191505092915050565b600073ffffffffffffffffffffffffffffffffffffffff82169050919050565b60006104e9826104be565b9050919050565b6104f9816104de565b82525050565b60008115159050919050565b610514816104ff565b82525050565b600060e083016000830151610532600086018261041f565b506020830151610545602086018261041f565b506040830151610558604086018261041f565b50606083015184820360608601526105708282610485565b9150506080830151610585608086018261041f565b5060a083015161059860a08601826104f0565b5060c08301516105ab60c086018261050b565b508091505092915050565b600060208201905081810360008301526105d0818461051a565b905092915050565b6105e181610415565b82525050565b600082825260208201905092915050565b60006106038261042e565b61060d81856105e7565b935061061d81856020860161044a565b61062681610474565b840191505092915050565b61063a816104de565b82525050565b610649816104ff565b82525050565b600060e082019050610664600083018a6105d8565b61067160208301896105d8565b61067e60408301886105d8565b818103606083015261069081876105f8565b905061069f60808301866105d8565b6106ac60a0830185610631565b6106b960c0830184610640565b98975050505050505050565b7f4f6e6c7920626f72726f7765722063616e20636c6f7365206c6f616e00000000600082015250565b60006106fb601c836105e7565b9150610706826106c5565b602082019050919050565b6000602082019050818103600083015261072a816106ee565b9050919050565b7f4c6f616e20697320616c726561647920636c6f73656400000000000000000000600082015250565b60006107676016836105e7565b915061077282610731565b602082019050919050565b600060208201905081810360008301526107968161075a565b9050919050565b7f4e487b7100000000000000000000000000000000000000000000000000000000600052602260045260246000fd5b600060028204905060018216806107e457607f821691505b6020821081036107f7576107f661079d565b5b5091905056fea2646970667358221220f494dab40d54dba83c6f1611b48fb850d1b0f29f1349f165839396a99bc5412b64736f6c634300081c0033","opcodes":"PUSH1 0x80 PUSH1 0x40 MSTORE CALLVALUE DUP1 ISZERO PUSH2 0x10 JUMPI PUSH1 0x0 DUP1 REVERT JUMPDEST POP PUSH1 0x40 MLOAD PUSH2 0xF92 CODESIZE SUB DUP1 PUSH2 0xF92 DUP4 CODECOPY DUP2 DUP2 ADD PUSH1 0x40 MSTORE DUP2 ADD SWAP1 PUSH2 0x32 SWAP2 SWAP1 PUSH2 0x331 JUMP JUMPDEST PUSH1 0x40 MLOAD DUP1 PUSH1 0xE0 ADD PUSH1 0x40 MSTORE DUP1 DUP6 DUP2 MSTORE PUSH1 0x20 ADD DUP5 DUP2 MSTORE PUSH1 0x20 ADD DUP4 DUP2 MSTORE PUSH1 0x20 ADD DUP3 DUP2 MSTORE PUSH1 0x20 ADD TIMESTAMP DUP2 MSTORE PUSH1 0x20 ADD CALLER PUSH20 0xFFFFFFFFFFFFFFFFFFFFFFFFFFFFFFFFFFFFFFFF AND DUP2 MSTORE PUSH1 0x20 ADD PUSH1 0x1 ISZERO ISZERO DUP2 MSTORE POP PUSH1 0x0 DUP1 DUP3 ADD MLOAD DUP2 PUSH1 0x0 ADD SSTORE PUSH1 0x20 DUP3 ADD MLOAD DUP2 PUSH1 0x1 ADD SSTORE PUSH1 0x40 DUP3 ADD MLOAD DUP2 PUSH1 0x2 ADD SSTORE PUSH1 0x60 DUP3 ADD MLOAD DUP2 PUSH1 0x3 ADD SWAP1 DUP2 PUSH2 0xB2 SWAP2 SWAP1 PUSH2 0x5CB JUMP JUMPDEST POP PUSH1 0x80 DUP3 ADD MLOAD DUP2 PUSH1 0x4 ADD SSTORE PUSH1 0xA0 DUP3 ADD MLOAD DUP2 PUSH1 0x5 ADD PUSH1 0x0 PUSH2 0x100 EXP DUP2 SLOAD DUP2 PUSH20 0xFFFFFFFFFFFFFFFFFFFFFFFFFFFFFFFFFFFFFFFF MUL NOT AND SWAP1 DUP4 PUSH20 0xFFFFFFFFFFFFFFFFFFFFFFFFFFFFFFFFFFFFFFFF AND MUL OR SWAP1 SSTORE POP PUSH1 0xC0 DUP3 ADD MLOAD DUP2 PUSH1 0x5 ADD PUSH1 0x14 PUSH2 0x100 EXP DUP2 SLOAD DUP2 PUSH1 0xFF MUL NOT AND SWAP1 DUP4 ISZERO ISZERO MUL OR SWAP1 SSTORE POP SWAP1 POP POP CALLER PUSH20 0xFFFFFFFFFFFFFFFFFFFFFFFFFFFFFFFFFFFFFFFF AND PUSH32 0x9B95484E9DA11541C75BECC13134E4E854E45941AC8529B44D0654DC874B856C DUP6 DUP6 DUP6 DUP6 TIMESTAMP PUSH1 0x40 MLOAD PUSH2 0x175 SWAP6 SWAP5 SWAP4 SWAP3 SWAP2 SWAP1 PUSH2 0x6F6 JUMP JUMPDEST PUSH1 0x40 MLOAD DUP1 SWAP2 SUB SWAP1 LOG2 POP POP POP POP PUSH2 0x750 JUMP JUMPDEST PUSH1 0x0 PUSH1 0x40 MLOAD SWAP1 POP SWAP1 JUMP JUMPDEST PUSH1 0x0 DUP1 REVERT JUMPDEST PUSH1 0x0 DUP1 REVERT JUMPDEST PUSH1 0x0 DUP2 SWAP1 POP SWAP2 SWAP1 POP JUMP JUMPDEST PUSH2 0x1AD DUP2 PUSH2 0x19A JUMP JUMPDEST DUP2 EQ PUSH2 0x1B8 JUMPI PUSH1 0x0 DUP1 REVERT JUMPDEST POP JUMP JUMPDEST PUSH1 0x0 DUP2 MLOAD SWAP1 POP PUSH2 0x1CA DUP2 PUSH2 0x1A4 JUMP JUMPDEST SWAP3 SWAP2 POP POP JUMP JUMPDEST PUSH1 0x0 DUP1 REVERT JUMPDEST PUSH1 0x0 DUP1 REVERT JUMPDEST PUSH1 0x0 PUSH1 0x1F NOT PUSH1 0x1F DUP4 ADD AND SWAP1 POP SWAP2 SWAP1 POP JUMP JUMPDEST PUSH32 0x4E487B7100000000000000000000000000000000000000000000000000000000 PUSH1 0x0 MSTORE PUSH1 0x41 PUSH1 0x4 MSTORE PUSH1 0x24 PUSH1 0x0 REVERT JUMPDEST PUSH2 0x223 DUP3 PUSH2 0x1DA JUMP JUMPDEST DUP2 ADD DUP2 DUP2 LT PUSH8 0xFFFFFFFFFFFFFFFF DUP3 GT OR ISZERO PUSH2 0x242 JUMPI PUSH2 0x241 PUSH2 0x1EB JUMP JUMPDEST JUMPDEST DUP1 PUSH1 0x40 MSTORE POP POP POP JUMP JUMPDEST PUSH1 0x0 PUSH2 0x255 PUSH2 0x186 JUMP JUMPDEST SWAP1 POP PUSH2 0x261 DUP3 DUP3 PUSH2 0x21A JUMP JUMPDEST SWAP2 SWAP1 POP JUMP JUMPDEST PUSH1 0x0 PUSH8 0xFFFFFFFFFFFFFFFF DUP3 GT ISZERO PUSH2 0x281 JUMPI PUSH2 0x280 PUSH2 0x1EB JUMP JUMPDEST JUMPDEST PUSH2 0x28A DUP3 PUSH2 0x1DA JUMP JUMPDEST SWAP1 POP PUSH1 0x20 DUP2 ADD SWAP1 POP SWAP2 SWAP1 POP JUMP JUMPDEST PUSH1 0x0 JUMPDEST DUP4 DUP2 LT ISZERO PUSH2 0x2B5 JUMPI DUP1 DUP3 ADD MLOAD DUP2 DUP5 ADD MSTORE PUSH1 0x20 DUP2 ADD SWAP1 POP PUSH2 0x29A JUMP JUMPDEST PUSH1 0x0 DUP5 DUP5 ADD MSTORE POP POP POP POP JUMP JUMPDEST PUSH1 0x0 PUSH2 0x2D4 PUSH2 0x2CF DUP5 PUSH2 0x266 JUMP JUMPDEST PUSH2 0x24B JUMP JUMPDEST SWAP1 POP DUP3 DUP2 MSTORE PUSH1 0x20 DUP2 ADD DUP5 DUP5 DUP5 ADD GT ISZERO PUSH2 0x2F0 JUMPI PUSH2 0x2EF PUSH2 0x1D5 JUMP JUMPDEST JUMPDEST PUSH2 0x2FB DUP5 DUP3 DUP6 PUSH2 0x297 JUMP JUMPDEST POP SWAP4 SWAP3 POP POP POP JUMP JUMPDEST PUSH1 0x0 DUP3 PUSH1 0x1F DUP4 ADD SLT PUSH2 0x318 JUMPI PUSH2 0x317 PUSH2 0x1D0 JUMP JUMPDEST JUMPDEST DUP2 MLOAD PUSH2 0x328 DUP5 DUP3 PUSH1 0x20 DUP7 ADD PUSH2 0x2C1 JUMP JUMPDEST SWAP2 POP POP SWAP3 SWAP2 POP POP JUMP JUMPDEST PUSH1 0x0 DUP1 PUSH1 0x0 DUP1 PUSH1 0x80 DUP6 DUP8 SUB SLT ISZERO PUSH2 0x34B JUMPI PUSH2 0x34A PUSH2 0x190 JUMP JUMPDEST JUMPDEST PUSH1 0x0 PUSH2 0x359 DUP8 DUP3 DUP9 ADD PUSH2 0x1BB JUMP JUMPDEST SWAP5 POP POP PUSH1 0x20 PUSH2 0x36A DUP8 DUP3 DUP9 ADD PUSH2 0x1BB JUMP JUMPDEST SWAP4 POP POP PUSH1 0x40 PUSH2 0x37B DUP8 DUP3 DUP9 ADD PUSH2 0x1BB JUMP JUMPDEST SWAP3 POP POP PUSH1 0x60 DUP6 ADD MLOAD PUSH8 0xFFFFFFFFFFFFFFFF DUP2 GT ISZERO PUSH2 0x39C JUMPI PUSH2 0x39B PUSH2 0x195 JUMP JUMPDEST JUMPDEST PUSH2 0x3A8 DUP8 DUP3 DUP9 ADD PUSH2 0x303 JUMP JUMPDEST SWAP2 POP POP SWAP3 SWAP6 SWAP2 SWAP5 POP SWAP3 POP JUMP JUMPDEST PUSH1 0x0 DUP2 MLOAD SWAP1 POP SWAP2 SWAP1 POP JUMP JUMPDEST PUSH32 0x4E487B7100000000000000000000000000000000000000000000000000000000 PUSH1 0x0 MSTORE PUSH1 0x22 PUSH1 0x4 MSTORE PUSH1 0x24 PUSH1 0x0 REVERT JUMPDEST PUSH1 0x0 PUSH1 0x2 DUP3 DIV SWAP1 POP PUSH1 0x1 DUP3 AND DUP1 PUSH2 0x406 JUMPI PUSH1 0x7F DUP3 AND SWAP2 POP JUMPDEST PUSH1 0x20 DUP3 LT DUP2 SUB PUSH2 0x419 JUMPI PUSH2 0x418 PUSH2 0x3BF JUMP JUMPDEST JUMPDEST POP SWAP2 SWAP1 POP JUMP JUMPDEST PUSH1 0x0 DUP2 SWAP1 POP DUP2 PUSH1 0x0 MSTORE PUSH1 0x20 PUSH1 0x0 KECCAK256 SWAP1 POP SWAP2 SWAP1 POP JUMP JUMPDEST PUSH1 0x0 PUSH1 0x20 PUSH1 0x1F DUP4 ADD DIV SWAP1 POP SWAP2 SWAP1 POP JUMP JUMPDEST PUSH1 0x0 DUP3 DUP3 SHL SWAP1 POP SWAP3 SWAP2 POP POP JUMP JUMPDEST PUSH1 0x0 PUSH1 0x8 DUP4 MUL PUSH2 0x481 PUSH32 0xFFFFFFFFFFFFFFFFFFFFFFFFFFFFFFFFFFFFFFFFFFFFFFFFFFFFFFFFFFFFFFFF DUP3 PUSH2 0x444 JUMP JUMPDEST PUSH2 0x48B DUP7 DUP4 PUSH2 0x444 JUMP JUMPDEST SWAP6 POP DUP1 NOT DUP5 AND SWAP4 POP DUP1 DUP7 AND DUP5 OR SWAP3 POP POP POP SWAP4 SWAP3 POP POP POP JUMP JUMPDEST PUSH1 0x0 DUP2 SWAP1 POP SWAP2 SWAP1 POP JUMP JUMPDEST PUSH1 0x0 PUSH2 0x4C8 PUSH2 0x4C3 PUSH2 0x4BE DUP5 PUSH2 0x19A JUMP JUMPDEST PUSH2 0x4A3 JUMP JUMPDEST PUSH2 0x19A JUMP JUMPDEST SWAP1 POP SWAP2 SWAP1 POP JUMP JUMPDEST PUSH1 0x0 DUP2 SWAP1 POP SWAP2 SWAP1 POP JUMP JUMPDEST PUSH2 0x4E2 DUP4 PUSH2 0x4AD JUMP JUMPDEST PUSH2 0x4F6 PUSH2 0x4EE DUP3 PUSH2 0x4CF JUMP JUMPDEST DUP5 DUP5 SLOAD PUSH2 0x451 JUMP JUMPDEST DUP3 SSTORE POP POP POP POP JUMP JUMPDEST PUSH1 0x0 SWAP1 JUMP JUMPDEST PUSH2 0x50B PUSH2 0x4FE JUMP JUMPDEST PUSH2 0x516 DUP2 DUP5 DUP5 PUSH2 0x4D9 JUMP JUMPDEST POP POP POP JUMP JUMPDEST JUMPDEST DUP2 DUP2 LT ISZERO PUSH2 0x53A JUMPI PUSH2 0x52F PUSH1 0x0 DUP3 PUSH2 0x503 JUMP JUMPDEST PUSH1 0x1 DUP2 ADD SWAP1 POP PUSH2 0x51C JUMP JUMPDEST POP POP JUMP JUMPDEST PUSH1 0x1F DUP3 GT ISZERO PUSH2 0x57F JUMPI PUSH2 0x550 DUP2 PUSH2 0x41F JUMP JUMPDEST PUSH2 0x559 DUP5 PUSH2 0x434 JUMP JUMPDEST DUP2 ADD PUSH1 0x20 DUP6 LT ISZERO PUSH2 0x568 JUMPI DUP2 SWAP1 POP JUMPDEST PUSH2 0x57C PUSH2 0x574 DUP6 PUSH2 0x434 JUMP JUMPDEST DUP4 ADD DUP3 PUSH2 0x51B JUMP JUMPDEST POP POP JUMPDEST POP POP POP JUMP JUMPDEST PUSH1 0x0 DUP3 DUP3 SHR SWAP1 POP SWAP3 SWAP2 POP POP JUMP JUMPDEST PUSH1 0x0 PUSH2 0x5A2 PUSH1 0x0 NOT DUP5 PUSH1 0x8 MUL PUSH2 0x584 JUMP JUMPDEST NOT DUP1 DUP4 AND SWAP2 POP POP SWAP3 SWAP2 POP POP JUMP JUMPDEST PUSH1 0x0 PUSH2 0x5BB DUP4 DUP4 PUSH2 0x591 JUMP JUMPDEST SWAP2 POP DUP3 PUSH1 0x2 MUL DUP3 OR SWAP1 POP SWAP3 SWAP2 POP POP JUMP JUMPDEST PUSH2 0x5D4 DUP3 PUSH2 0x3B4 JUMP JUMPDEST PUSH8 0xFFFFFFFFFFFFFFFF DUP2 GT ISZERO PUSH2 0x5ED JUMPI PUSH2 0x5EC PUSH2 0x1EB JUMP JUMPDEST JUMPDEST PUSH2 0x5F7 DUP3 SLOAD PUSH2 0x3EE JUMP JUMPDEST PUSH2 0x602 DUP3 DUP3 DUP6 PUSH2 0x53E JUMP JUMPDEST PUSH1 0x0 PUSH1 0x20 SWAP1 POP PUSH1 0x1F DUP4 GT PUSH1 0x1 DUP2 EQ PUSH2 0x635 JUMPI PUSH1 0x0 DUP5 ISZERO PUSH2 0x623 JUMPI DUP3 DUP8 ADD MLOAD SWAP1 POP JUMPDEST PUSH2 0x62D DUP6 DUP3 PUSH2 0x5AF JUMP JUMPDEST DUP7 SSTORE POP PUSH2 0x695 JUMP JUMPDEST PUSH1 0x1F NOT DUP5 AND PUSH2 0x643 DUP7 PUSH2 0x41F JUMP JUMPDEST PUSH1 0x0 JUMPDEST DUP3 DUP2 LT ISZERO PUSH2 0x66B JUMPI DUP5 DUP10 ADD MLOAD DUP3 SSTORE PUSH1 0x1 DUP3 ADD SWAP2 POP PUSH1 0x20 DUP6 ADD SWAP5 POP PUSH1 0x20 DUP2 ADD SWAP1 POP PUSH2 0x646 JUMP JUMPDEST DUP7 DUP4 LT ISZERO PUSH2 0x688 JUMPI DUP5 DUP10 ADD MLOAD PUSH2 0x684 PUSH1 0x1F DUP10 AND DUP3 PUSH2 0x591 JUMP JUMPDEST DUP4 SSTORE POP JUMPDEST PUSH1 0x1 PUSH1 0x2 DUP9 MUL ADD DUP9 SSTORE POP POP POP JUMPDEST POP POP POP POP POP POP JUMP JUMPDEST PUSH2 0x6A6 DUP2 PUSH2 0x19A JUMP JUMPDEST DUP3 MSTORE POP POP JUMP JUMPDEST PUSH1 0x0 DUP3 DUP3 MSTORE PUSH1 0x20 DUP3 ADD SWAP1 POP SWAP3 SWAP2 POP POP JUMP JUMPDEST PUSH1 0x0 PUSH2 0x6C8 DUP3 PUSH2 0x3B4 JUMP JUMPDEST PUSH2 0x6D2 DUP2 DUP6 PUSH2 0x6AC JUMP JUMPDEST SWAP4 POP PUSH2 0x6E2 DUP2 DUP6 PUSH1 0x20 DUP7 ADD PUSH2 0x297 JUMP JUMPDEST PUSH2 0x6EB DUP2 PUSH2 0x1DA JUMP JUMPDEST DUP5 ADD SWAP2 POP POP SWAP3 SWAP2 POP POP JUMP JUMPDEST PUSH1 0x0 PUSH1 0xA0 DUP3 ADD SWAP1 POP PUSH2 0x70B PUSH1 0x0 DUP4 ADD DUP9 PUSH2 0x69D JUMP JUMPDEST PUSH2 0x718 PUSH1 0x20 DUP4 ADD DUP8 PUSH2 0x69D JUMP JUMPDEST PUSH2 0x725 PUSH1 0x40 DUP4 ADD DUP7 PUSH2 0x69D JUMP JUMPDEST DUP2 DUP2 SUB PUSH1 0x60 DUP4 ADD MSTORE PUSH2 0x737 DUP2 DUP6 PUSH2 0x6BD JUMP JUMPDEST SWAP1 POP PUSH2 0x746 PUSH1 0x80 DUP4 ADD DUP5 PUSH2 0x69D JUMP JUMPDEST SWAP7 SWAP6 POP POP POP POP POP POP JUMP JUMPDEST PUSH2 0x833 DUP1 PUSH2 0x75F PUSH1 0x0 CODECOPY PUSH1 0x0 RETURN INVALID PUSH1 0x80 PUSH1 0x40 MSTORE CALLVALUE DUP1 ISZERO PUSH2 0x10 JUMPI PUSH1 0x0 DUP1 REVERT JUMPDEST POP PUSH1 0x4 CALLDATASIZE LT PUSH2 0x41 JUMPI PUSH1 0x0 CALLDATALOAD PUSH1 0xE0 SHR DUP1 PUSH4 0x232FA733 EQ PUSH2 0x46 JUMPI DUP1 PUSH4 0xA3B9E39D EQ PUSH2 0x50 JUMPI DUP1 PUSH4 0xD285B7B4 EQ PUSH2 0x6E JUMPI JUMPDEST PUSH1 0x0 DUP1 REVERT JUMPDEST PUSH2 0x4E PUSH2 0x92 JUMP JUMPDEST STOP JUMPDEST PUSH2 0x58 PUSH2 0x196 JUMP JUMPDEST PUSH1 0x40 MLOAD PUSH2 0x65 SWAP2 SWAP1 PUSH2 0x5B6 JUMP JUMPDEST PUSH1 0x40 MLOAD DUP1 SWAP2 SUB SWAP1 RETURN JUMPDEST PUSH2 0x76 PUSH2 0x2DB JUMP JUMPDEST PUSH1 0x40 MLOAD PUSH2 0x89 SWAP8 SWAP7 SWAP6 SWAP5 SWAP4 SWAP3 SWAP2 SWAP1 PUSH2 0x64F JUMP JUMPDEST PUSH1 0x40 MLOAD DUP1 SWAP2 SUB SWAP1 RETURN JUMPDEST PUSH1 0x0 PUSH1 0x5 ADD PUSH1 0x0 SWAP1 SLOAD SWAP1 PUSH2 0x100 EXP SWAP1 DIV PUSH20 0xFFFFFFFFFFFFFFFFFFFFFFFFFFFFFFFFFFFFFFFF AND PUSH20 0xFFFFFFFFFFFFFFFFFFFFFFFFFFFFFFFFFFFFFFFF AND CALLER PUSH20 0xFFFFFFFFFFFFFFFFFFFFFFFFFFFFFFFFFFFFFFFF AND EQ PUSH2 0x125 JUMPI PUSH1 0x40 MLOAD PUSH32 0x8C379A000000000000000000000000000000000000000000000000000000000 DUP2 MSTORE PUSH1 0x4 ADD PUSH2 0x11C SWAP1 PUSH2 0x711 JUMP JUMPDEST PUSH1 0x40 MLOAD DUP1 SWAP2 SUB SWAP1 REVERT JUMPDEST PUSH1 0x0 PUSH1 0x5 ADD PUSH1 0x14 SWAP1 SLOAD SWAP1 PUSH2 0x100 EXP SWAP1 DIV PUSH1 0xFF AND PUSH2 0x177 JUMPI PUSH1 0x40 MLOAD PUSH32 0x8C379A000000000000000000000000000000000000000000000000000000000 DUP2 MSTORE PUSH1 0x4 ADD PUSH2 0x16E SWAP1 PUSH2 0x77D JUMP JUMPDEST PUSH1 0x40 MLOAD DUP1 SWAP2 SUB SWAP1 REVERT JUMPDEST PUSH1 0x0 DUP1 PUSH1 0x5 ADD PUSH1 0x14 PUSH2 0x100 EXP DUP2 SLOAD DUP2 PUSH1 0xFF MUL NOT AND SWAP1 DUP4 ISZERO ISZERO MUL OR SWAP1 SSTORE POP JUMP JUMPDEST PUSH2 0x19E PUSH2 0x3C0 JUMP JUMPDEST PUSH1 0x0 PUSH1 0x40 MLOAD DUP1 PUSH1 0xE0 ADD PUSH1 0x40 MSTORE SWAP1 DUP2 PUSH1 0x0 DUP3 ADD SLOAD DUP2 MSTORE PUSH1 0x20 ADD PUSH1 0x1 DUP3 ADD SLOAD DUP2 MSTORE PUSH1 0x20 ADD PUSH1 0x2 DUP3 ADD SLOAD DUP2 MSTORE PUSH1 0x20 ADD PUSH1 0x3 DUP3 ADD DUP1 SLOAD PUSH2 0x1D9 SWAP1 PUSH2 0x7CC JUMP JUMPDEST DUP1 PUSH1 0x1F ADD PUSH1 0x20 DUP1 SWAP2 DIV MUL PUSH1 0x20 ADD PUSH1 0x40 MLOAD SWAP1 DUP2 ADD PUSH1 0x40 MSTORE DUP1 SWAP3 SWAP2 SWAP1 DUP2 DUP2 MSTORE PUSH1 0x20 ADD DUP3 DUP1 SLOAD PUSH2 0x205 SWAP1 PUSH2 0x7CC JUMP JUMPDEST DUP1 ISZERO PUSH2 0x252 JUMPI DUP1 PUSH1 0x1F LT PUSH2 0x227 JUMPI PUSH2 0x100 DUP1 DUP4 SLOAD DIV MUL DUP4 MSTORE SWAP2 PUSH1 0x20 ADD SWAP2 PUSH2 0x252 JUMP JUMPDEST DUP3 ADD SWAP2 SWAP1 PUSH1 0x0 MSTORE PUSH1 0x20 PUSH1 0x0 KECCAK256 SWAP1 JUMPDEST DUP2 SLOAD DUP2 MSTORE SWAP1 PUSH1 0x1 ADD SWAP1 PUSH1 0x20 ADD DUP1 DUP4 GT PUSH2 0x235 JUMPI DUP3 SWAP1 SUB PUSH1 0x1F AND DUP3 ADD SWAP2 JUMPDEST POP POP POP POP POP DUP2 MSTORE PUSH1 0x20 ADD PUSH1 0x4 DUP3 ADD SLOAD DUP2 MSTORE PUSH1 0x20 ADD PUSH1 0x5 DUP3 ADD PUSH1 0x0 SWAP1 SLOAD SWAP1 PUSH2 0x100 EXP SWAP1 DIV PUSH20 0xFFFFFFFFFFFFFFFFFFFFFFFFFFFFFFFFFFFFFFFF AND PUSH20 0xFFFFFFFFFFFFFFFFFFFFFFFFFFFFFFFFFFFFFFFF AND PUSH20 0xFFFFFFFFFFFFFFFFFFFFFFFFFFFFFFFFFFFFFFFF AND DUP2 MSTORE PUSH1 0x20 ADD PUSH1 0x5 DUP3 ADD PUSH1 0x14 SWAP1 SLOAD SWAP1 PUSH2 0x100 EXP SWAP1 DIV PUSH1 0xFF AND ISZERO ISZERO ISZERO ISZERO DUP2 MSTORE POP POP SWAP1 POP SWAP1 JUMP JUMPDEST PUSH1 0x0 DUP1 PUSH1 0x0 ADD SLOAD SWAP1 DUP1 PUSH1 0x1 ADD SLOAD SWAP1 DUP1 PUSH1 0x2 ADD SLOAD SWAP1 DUP1 PUSH1 0x3 ADD DUP1 SLOAD PUSH2 0x2FE SWAP1 PUSH2 0x7CC JUMP JUMPDEST DUP1 PUSH1 0x1F ADD PUSH1 0x20 DUP1 SWAP2 DIV MUL PUSH1 0x20 ADD PUSH1 0x40 MLOAD SWAP1 DUP2 ADD PUSH1 0x40 MSTORE DUP1 SWAP3 SWAP2 SWAP1 DUP2 DUP2 MSTORE PUSH1 0x20 ADD DUP3 DUP1 SLOAD PUSH2 0x32A SWAP1 PUSH2 0x7CC JUMP JUMPDEST DUP1 ISZERO PUSH2 0x377 JUMPI DUP1 PUSH1 0x1F LT PUSH2 0x34C JUMPI PUSH2 0x100 DUP1 DUP4 SLOAD DIV MUL DUP4 MSTORE SWAP2 PUSH1 0x20 ADD SWAP2 PUSH2 0x377 JUMP JUMPDEST DUP3 ADD SWAP2 SWAP1 PUSH1 0x0 MSTORE PUSH1 0x20 PUSH1 0x0 KECCAK256 SWAP1 JUMPDEST DUP2 SLOAD DUP2 MSTORE SWAP1 PUSH1 0x1 ADD SWAP1 PUSH1 0x20 ADD DUP1 DUP4 GT PUSH2 0x35A JUMPI DUP3 SWAP1 SUB PUSH1 0x1F AND DUP3 ADD SWAP2 JUMPDEST POP POP POP POP POP SWAP1 DUP1 PUSH1 0x4 ADD SLOAD SWAP1 DUP1 PUSH1 0x5 ADD PUSH1 0x0 SWAP1 SLOAD SWAP1 PUSH2 0x100 EXP SWAP1 DIV PUSH20 0xFFFFFFFFFFFFFFFFFFFFFFFFFFFFFFFFFFFFFFFF AND SWAP1 DUP1 PUSH1 0x5 ADD PUSH1 0x14 SWAP1 SLOAD SWAP1 PUSH2 0x100 EXP SWAP1 DIV PUSH1 0xFF AND SWAP1 POP DUP8 JUMP JUMPDEST PUSH1 0x40 MLOAD DUP1 PUSH1 0xE0 ADD PUSH1 0x40 MSTORE DUP1 PUSH1 0x0 DUP2 MSTORE PUSH1 0x20 ADD PUSH1 0x0 DUP2 MSTORE PUSH1 0x20 ADD PUSH1 0x0 DUP2 MSTORE PUSH1 0x20 ADD PUSH1 0x60 DUP2 MSTORE PUSH1 0x20 ADD PUSH1 0x0 DUP2 MSTORE PUSH1 0x20 ADD PUSH1 0x0 PUSH20 0xFFFFFFFFFFFFFFFFFFFFFFFFFFFFFFFFFFFFFFFF AND DUP2 MSTORE PUSH1 0x20 ADD PUSH1 0x0 ISZERO ISZERO DUP2 MSTORE POP SWAP1 JUMP JUMPDEST PUSH1 0x0 DUP2 SWAP1 POP SWAP2 SWAP1 POP JUMP JUMPDEST PUSH2 0x428 DUP2 PUSH2 0x415 JUMP JUMPDEST DUP3 MSTORE POP POP JUMP JUMPDEST PUSH1 0x0 DUP2 MLOAD SWAP1 POP SWAP2 SWAP1 POP JUMP JUMPDEST PUSH1 0x0 DUP3 DUP3 MSTORE PUSH1 0x20 DUP3 ADD SWAP1 POP SWAP3 SWAP2 POP POP JUMP JUMPDEST PUSH1 0x0 JUMPDEST DUP4 DUP2 LT ISZERO PUSH2 0x468 JUMPI DUP1 DUP3 ADD MLOAD DUP2 DUP5 ADD MSTORE PUSH1 0x20 DUP2 ADD SWAP1 POP PUSH2 0x44D JUMP JUMPDEST PUSH1 0x0 DUP5 DUP5 ADD MSTORE POP POP POP POP JUMP JUMPDEST PUSH1 0x0 PUSH1 0x1F NOT PUSH1 0x1F DUP4 ADD AND SWAP1 POP SWAP2 SWAP1 POP JUMP JUMPDEST PUSH1 0x0 PUSH2 0x490 DUP3 PUSH2 0x42E JUMP JUMPDEST PUSH2 0x49A DUP2 DUP6 PUSH2 0x439 JUMP JUMPDEST SWAP4 POP PUSH2 0x4AA DUP2 DUP6 PUSH1 0x20 DUP7 ADD PUSH2 0x44A JUMP JUMPDEST PUSH2 0x4B3 DUP2 PUSH2 0x474 JUMP JUMPDEST DUP5 ADD SWAP2 POP POP SWAP3 SWAP2 POP POP JUMP JUMPDEST PUSH1 0x0 PUSH20 0xFFFFFFFFFFFFFFFFFFFFFFFFFFFFFFFFFFFFFFFF DUP3 AND SWAP1 POP SWAP2 SWAP1 POP JUMP JUMPDEST PUSH1 0x0 PUSH2 0x4E9 DUP3 PUSH2 0x4BE JUMP JUMPDEST SWAP1 POP SWAP2 SWAP1 POP JUMP JUMPDEST PUSH2 0x4F9 DUP2 PUSH2 0x4DE JUMP JUMPDEST DUP3 MSTORE POP POP JUMP JUMPDEST PUSH1 0x0 DUP2 ISZERO ISZERO SWAP1 POP SWAP2 SWAP1 POP JUMP JUMPDEST PUSH2 0x514 DUP2 PUSH2 0x4FF JUMP JUMPDEST DUP3 MSTORE POP POP JUMP JUMPDEST PUSH1 0x0 PUSH1 0xE0 DUP4 ADD PUSH1 0x0 DUP4 ADD MLOAD PUSH2 0x532 PUSH1 0x0 DUP7 ADD DUP3 PUSH2 0x41F JUMP JUMPDEST POP PUSH1 0x20 DUP4 ADD MLOAD PUSH2 0x545 PUSH1 0x20 DUP7 ADD DUP3 PUSH2 0x41F JUMP JUMPDEST POP PUSH1 0x40 DUP4 ADD MLOAD PUSH2 0x558 PUSH1 0x40 DUP7 ADD DUP3 PUSH2 0x41F JUMP JUMPDEST POP PUSH1 0x60 DUP4 ADD MLOAD DUP5 DUP3 SUB PUSH1 0x60 DUP7 ADD MSTORE PUSH2 0x570 DUP3 DUP3 PUSH2 0x485 JUMP JUMPDEST SWAP2 POP POP PUSH1 0x80 DUP4 ADD MLOAD PUSH2 0x585 PUSH1 0x80 DUP7 ADD DUP3 PUSH2 0x41F JUMP JUMPDEST POP PUSH1 0xA0 DUP4 ADD MLOAD PUSH2 0x598 PUSH1 0xA0 DUP7 ADD DUP3 PUSH2 0x4F0 JUMP JUMPDEST POP PUSH1 0xC0 DUP4 ADD MLOAD PUSH2 0x5AB PUSH1 0xC0 DUP7 ADD DUP3 PUSH2 0x50B JUMP JUMPDEST POP DUP1 SWAP2 POP POP SWAP3 SWAP2 POP POP JUMP JUMPDEST PUSH1 0x0 PUSH1 0x20 DUP3 ADD SWAP1 POP DUP2 DUP2 SUB PUSH1 0x0 DUP4 ADD MSTORE PUSH2 0x5D0 DUP2 DUP5 PUSH2 0x51A JUMP JUMPDEST SWAP1 POP SWAP3 SWAP2 POP POP JUMP JUMPDEST PUSH2 0x5E1 DUP2 PUSH2 0x415 JUMP JUMPDEST DUP3 MSTORE POP POP JUMP JUMPDEST PUSH1 0x0 DUP3 DUP3 MSTORE PUSH1 0x20 DUP3 ADD SWAP1 POP SWAP3 SWAP2 POP POP JUMP JUMPDEST PUSH1 0x0 PUSH2 0x603 DUP3 PUSH2 0x42E JUMP JUMPDEST PUSH2 0x60D DUP2 DUP6 PUSH2 0x5E7 JUMP JUMPDEST SWAP4 POP PUSH2 0x61D DUP2 DUP6 PUSH1 0x20 DUP7 ADD PUSH2 0x44A JUMP JUMPDEST PUSH2 0x626 DUP2 PUSH2 0x474 JUMP JUMPDEST DUP5 ADD SWAP2 POP POP SWAP3 SWAP2 POP POP JUMP JUMPDEST PUSH2 0x63A DUP2 PUSH2 0x4DE JUMP JUMPDEST DUP3 MSTORE POP POP JUMP JUMPDEST PUSH2 0x649 DUP2 PUSH2 0x4FF JUMP JUMPDEST DUP3 MSTORE POP POP JUMP JUMPDEST PUSH1 0x0 PUSH1 0xE0 DUP3 ADD SWAP1 POP PUSH2 0x664 PUSH1 0x0 DUP4 ADD DUP11 PUSH2 0x5D8 JUMP JUMPDEST PUSH2 0x671 PUSH1 0x20 DUP4 ADD DUP10 PUSH2 0x5D8 JUMP JUMPDEST PUSH2 0x67E PUSH1 0x40 DUP4 ADD DUP9 PUSH2 0x5D8 JUMP JUMPDEST DUP2 DUP2 SUB PUSH1 0x60 DUP4 ADD MSTORE PUSH2 0x690 DUP2 DUP8 PUSH2 0x5F8 JUMP JUMPDEST SWAP1 POP PUSH2 0x69F PUSH1 0x80 DUP4 ADD DUP7 PUSH2 0x5D8 JUMP JUMPDEST PUSH2 0x6AC PUSH1 0xA0 DUP4 ADD DUP6 PUSH2 0x631 JUMP JUMPDEST PUSH2 0x6B9 PUSH1 0xC0 DUP4 ADD DUP5 PUSH2 0x640 JUMP JUMPDEST SWAP9 SWAP8 POP POP POP POP POP POP POP POP JUMP JUMPDEST PUSH32 0x4F6E6C7920626F72726F7765722063616E20636C6F7365206C6F616E00000000 PUSH1 0x0 DUP3 ADD MSTORE POP JUMP JUMPDEST PUSH1 0x0 PUSH2 0x6FB PUSH1 0x1C DUP4 PUSH2 0x5E7 JUMP JUMPDEST SWAP2 POP PUSH2 0x706 DUP3 PUSH2 0x6C5 JUMP JUMPDEST PUSH1 0x20 DUP3 ADD SWAP1 POP SWAP2 SWAP1 POP JUMP JUMPDEST PUSH1 0x0 PUSH1 0x20 DUP3 ADD SWAP1 POP DUP2 DUP2 SUB PUSH1 0x0 DUP4 ADD MSTORE PUSH2 0x72A DUP2 PUSH2 0x6EE JUMP JUMPDEST SWAP1 POP SWAP2 SWAP1 POP JUMP JUMPDEST PUSH32 0x4C6F616E20697320616C726561647920636C6F73656400000000000000000000 PUSH1 0x0 DUP3 ADD MSTORE POP JUMP JUMPDEST PUSH1 0x0 PUSH2 0x767 PUSH1 0x16 DUP4 PUSH2 0x5E7 JUMP JUMPDEST SWAP2 POP PUSH2 0x772 DUP3 PUSH2 0x731 JUMP JUMPDEST PUSH1 0x20 DUP3 ADD SWAP1 POP SWAP2 SWAP1 POP JUMP JUMPDEST PUSH1 0x0 PUSH1 0x20 DUP3 ADD SWAP1 POP DUP2 DUP2 SUB PUSH1 0x0 DUP4 ADD MSTORE PUSH2 0x796 DUP2 PUSH2 0x75A JUMP JUMPDEST SWAP1 POP SWAP2 SWAP1 POP JUMP JUMPDEST PUSH32 0x4E487B7100000000000000000000000000000000000000000000000000000000 PUSH1 0x0 MSTORE PUSH1 0x22 PUSH1 0x4 MSTORE PUSH1 0x24 PUSH1 0x0 REVERT JUMPDEST PUSH1 0x0 PUSH1 0x2 DUP3 DIV SWAP1 POP PUSH1 0x1 DUP3 AND DUP1 PUSH2 0x7E4 JUMPI PUSH1 0x7F DUP3 AND SWAP2 POP JUMPDEST PUSH1 0x20 DUP3 LT DUP2 SUB PUSH2 0x7F7 JUMPI PUSH2 0x7F6 PUSH2 0x79D JUMP JUMPDEST JUMPDEST POP SWAP2 SWAP1 POP JUMP INVALID LOG2 PUSH5 0x6970667358 0x22 SLT KECCAK256 DELEGATECALL SWAP5 0xDA 0xB4 0xD SLOAD 0xDB 0xA8 EXTCODECOPY PUSH16 0x1611B48FB850D1B0F29F1349F1658393 SWAP7 0xA9 SWAP12 0xC5 COINBASE 0x2B PUSH5 0x736F6C6343 STOP ADDMOD SHR STOP CALLER "},"methodIdentifiers":{"closeLoan()":"232fa733","getLoanDetails()":"a3b9e39d","loan()":"d285b7b4"}}}}}