{
  "_format": "hh-sol-artifact-1",
  "contractName": "LoanContract",
  "sourceName": "contracts/LoanContract.sol",
  "abi": [
    {
      "inputs": [
        {
          "internalType": "uint256",
          "name": "_loanAmount",
          "type": "uint256"
        },
        {
          "internalType": "uint256",
          "name": "_interestRate",
          "type": "uint256"
        },
        {
          "internalType": "uint256",
          "name": "_tenure",
          "type": "uint256"
        },
        {
          "internalType": "string",
          "name": "_purpose",
          "type": "string"
        }
      ],
      "stateMutability": "nonpayable",
      "type": "constructor"
    },
    {
      "anonymous": false,
      "inputs": [
        {
          "indexed": false,
          "internalType": "uint256",
          "name": "loanAmount",
          "type": "uint256"
        },
        {
          "indexed": false,
          "internalType": "uint256",
          "name": "interestRate",
          "type": "uint256"
        },
        {
          "indexed": false,
          "internalType": "uint256",
          "name": "tenure",
          "type": "uint256"
        },
        {
          "indexed": false,
          "internalType": "string",
          "name": "purpose",
          "type": "string"
        },
        {
          "indexed": false,
          "internalType": "uint256",
          "name": "createdAt",
          "type": "uint256"
        },
        {
          "indexed": true,
          "internalType": "address",
          "name": "borrower",
          "type": "address"
        }
      ],
      "name": "LoanCreated",
      "type": "event"
    },
    {
      "inputs": [],
      "name": "closeLoan",
      "outputs": [],
      "stateMutability": "nonpayable",
      "type": "function"
    },
    {
      "inputs": [],
      "name": "getLoanDetails",
      "outputs": [
        {
          "components": [
            {
              "internalType": "uint256",
              "name": "loanAmount",
              "type": "uint256"
            },
            {
              "internalType": "uint256",
              "name": "interestRate",
              "type": "uint256"
            },
            {
              "internalType": "uint256",
              "name": "tenure",
              "type": "uint256"
            },
            {
              "internalType": "string",
              "name": "purpose",
              "type": "string"
            },
            {
              "internalType": "uint256",
              "name": "createdAt",
              "type": "uint256"
            },
            {
              "internalType": "address",
              "name": "borrower",
              "type": "address"
            },
            {
              "internalType": "bool",
              "name": "isActive",
              "type": "bool"
            }
          ],
          "internalType": "struct LoanContract.Loan",
          "name": "",
          "type": "tuple"
        }
      ],
      "stateMutability": "view",
      "type": "function"
    },
    {
      "inputs": [],
      "name": "loan",
      "outputs": [
        {
          "internalType": "uint256",
          "name": "loanAmount",
          "type": "uint256"
        },
        {
          "internalType": "uint256",
          "name": "interestRate",
          "type": "uint256"
        },
        {
          "internalType": "uint256",
          "name": "tenure",
          "type": "uint256"
        },
        {
          "internalType": "string",
          "name": "purpose",
          "type": "string"
        },
        {
          "internalType": "uint256",
          "name": "createdAt",
          "type": "uint256"
        },
        {
          "internalType": "address",
          "name": "borrower",
          "type": "address"
        },
        {
          "internalType": "bool",
          "name": "isActive",
          "type": "bool"
        }
      ],
      "stateMutability": "view",
      "type": "function"
    }
  ],
  "bytecode": "0x608060405234801561001057600080fd5b50604051610f92380380610f9283398181016040528101906100329190610331565b6040518060e001604052808581526020018481526020018381526020018281526020014281526020013373ffffffffffffffffffffffffffffffffffffffff168152602001600115158152506000808201518160000155602082015181600101556040820151816002015560608201518160030190816100b291906105cb565b506080820151816004015560a08201518160050160006101000a81548173ffffffffffffffffffffffffffffffffffffffff021916908373ffffffffffffffffffffffffffffffffffffffff16021790555060c08201518160050160146101000a81548160ff0219169083151502179055509050503373ffffffffffffffffffffffffffffffffffffffff167f9b95484e9da11541c75becc13134e4e854e45941ac8529b44d0654dc874b856c85858585426040516101759594939291906106f6565b60405180910390a250505050610750565b6000604051905090565b600080fd5b600080fd5b6000819050919050565b6101ad8161019a565b81146101b857600080fd5b50565b6000815190506101ca816101a4565b92915050565b600080fd5b600080fd5b6000601f19601f8301169050919050565b7f4e487b7100000000000000000000000000000000000000000000000000000000600052604160045260246000fd5b610223826101da565b810181811067ffffffffffffffff82111715610242576102416101eb565b5b80604052505050565b6000610255610186565b9050610261828261021a565b919050565b600067ffffffffffffffff821115610281576102806101eb565b5b61028a826101da565b9050602081019050919050565b60005b838110156102b557808201518184015260208101905061029a565b60008484015250505050565b60006102d46102cf84610266565b61024b565b9050828152602081018484840111156102f0576102ef6101d5565b5b6102fb848285610297565b509392505050565b600082601f830112610318576103176101d0565b5b81516103288482602086016102c1565b91505092915050565b6000806000806080858703121561034b5761034a610190565b5b6000610359878288016101bb565b945050602061036a878288016101bb565b935050604061037b878288016101bb565b925050606085015167ffffffffffffffff81111561039c5761039b610195565b5b6103a887828801610303565b91505092959194509250565b600081519050919050565b7f4e487b7100000000000000000000000000000000000000000000000000000000600052602260045260246000fd5b6000600282049050600182168061040657607f821691505b602082108103610419576104186103bf565b5b50919050565b60008190508160005260206000209050919050565b60006020601f8301049050919050565b600082821b905092915050565b6000600883026104817fffffffffffffffffffffffffffffffffffffffffffffffffffffffffffffffff82610444565b61048b8683610444565b95508019841693508086168417925050509392505050565b6000819050919050565b60006104c86104c36104be8461019a565b6104a3565b61019a565b9050919050565b6000819050919050565b6104e2836104ad565b6104f66104ee826104cf565b848454610451565b825550505050565b600090565b61050b6104fe565b6105168184846104d9565b505050565b5b8181101561053a5761052f600082610503565b60018101905061051c565b5050565b601f82111561057f576105508161041f565b61055984610434565b81016020851015610568578190505b61057c61057485610434565b83018261051b565b50505b505050565b600082821c905092915050565b60006105a260001984600802610584565b1980831691505092915050565b60006105bb8383610591565b9150826002028217905092915050565b6105d4826103b4565b67ffffffffffffffff8111156105ed576105ec6101eb565b5b6105f782546103ee565b61060282828561053e565b600060209050601f8311600181146106355760008415610623578287015190505b61062d85826105af565b865550610695565b601f1984166106438661041f565b60005b8281101561066b57848901518255600182019150602085019450602081019050610646565b868310156106885784890151610684601f891682610591565b8355505b6001600288020188555050505b505050505050565b6106a68161019a565b82525050565b600082825260208201905092915050565b60006106c8826103b4565b6106d281856106ac565b93506106e2818560208601610297565b6106eb816101da565b840191505092915050565b600060a08201905061070b600083018861069d565b610718602083018761069d565b610725604083018661069d565b818103606083015261073781856106bd565b9050610746608083018461069d565b9695505050505050565b6108338061075f6000396000f3fe608060405234801561001057600080fd5b50600436106100415760003560e01c8063232fa73314610046578063a3b9e39d14610050578063d285b7b41461006e575b600080fd5b61004e610092565b005b610058610196565b60405161006591906105b6565b60405180910390f35b6100766102db565b604051610089979695949392919061064f565b60405180910390f35b600060050160009054906101000a900473ffffffffffffffffffffffffffffffffffffffff1673ffffffffffffffffffffffffffffffffffffffff163373ffffffffffffffffffffffffffffffffffffffff1614610125576040517f08c379a000000000000000000000000000000000000000000000000000000000815260040161011c90610711565b60405180910390fd5b600060050160149054906101000a900460ff16610177576040517f08c379a000000000000000000000000000000000000000000000000000000000815260040161016e9061077d565b60405180910390fd5b60008060050160146101000a81548160ff021916908315150217905550565b61019e6103c0565b60006040518060e00160405290816000820154815260200160018201548152602001600282015481526020016003820180546101d9906107cc565b80601f0160208091040260200160405190810160405280929190818152602001828054610205906107cc565b80156102525780601f1061022757610100808354040283529160200191610252565b820191906000526020600020905b81548152906001019060200180831161023557829003601f168201915b50505050508152602001600482015481526020016005820160009054906101000a900473ffffffffffffffffffffffffffffffffffffffff1673ffffffffffffffffffffffffffffffffffffffff1673ffffffffffffffffffffffffffffffffffffffff1681526020016005820160149054906101000a900460ff161515151581525050905090565b60008060000154908060010154908060020154908060030180546102fe906107cc565b80601f016020809104026020016040519081016040528092919081815260200182805461032a906107cc565b80156103775780601f1061034c57610100808354040283529160200191610377565b820191906000526020600020905b81548152906001019060200180831161035a57829003601f168201915b5050505050908060040154908060050160009054906101000a900473ffffffffffffffffffffffffffffffffffffffff16908060050160149054906101000a900460ff16905087565b6040518060e001604052806000815260200160008152602001600081526020016060815260200160008152602001600073ffffffffffffffffffffffffffffffffffffffff1681526020016000151581525090565b6000819050919050565b61042881610415565b82525050565b600081519050919050565b600082825260208201905092915050565b60005b8381101561046857808201518184015260208101905061044d565b60008484015250505050565b6000601f19601f8301169050919050565b60006104908261042e565b61049a8185610439565b93506104aa81856020860161044a565b6104b381610474565b840191505092915050565b600073ffffffffffffffffffffffffffffffffffffffff82169050919050565b60006104e9826104be565b9050919050565b6104f9816104de565b82525050565b60008115159050919050565b610514816104ff565b82525050565b600060e083016000830151610532600086018261041f565b506020830151610545602086018261041f565b506040830151610558604086018261041f565b50606083015184820360608601526105708282610485565b9150506080830151610585608086018261041f565b5060a083015161059860a08601826104f0565b5060c08301516105ab60c086018261050b565b508091505092915050565b600060208201905081810360008301526105d0818461051a565b905092915050565b6105e181610415565b82525050565b600082825260208201905092915050565b60006106038261042e565b61060d81856105e7565b935061061d81856020860161044a565b61062681610474565b840191505092915050565b61063a816104de565b82525050565b610649816104ff565b82525050565b600060e082019050610664600083018a6105d8565b61067160208301896105d8565b61067e60408301886105d8565b818103606083015261069081876105f8565b905061069f60808301866105d8565b6106ac60a0830185610631565b6106b960c0830184610640565b98975050505050505050565b7f4f6e6c7920626f72726f7765722063616e20636c6f7365206c6f616e00000000600082015250565b60006106fb601c836105e7565b9150610706826106c5565b602082019050919050565b6000602082019050818103600083015261072a816106ee565b9050919050565b7f4c6f616e20697320616c726561647920636c6f73656400000000000000000000600082015250565b60006107676016836105e7565b915061077282610731565b602082019050919050565b600060208201905081810360008301526107968161075a565b9050919050565b7f4e487b7100000000000000000000000000000000000000000000000000000000600052602260045260246000fd5b600060028204905060018216806107e457607f821691505b6020821081036107f7576107f661079d565b5b5091905056fea2646970667358221220f494dab40d54dba83c6f1611b48fb850d1b0f29f1349f165839396a99bc5412b64736f6c634300081c0033",
  "linkReferences": {},
  "deployedLinkReferences": {}
}