{
  "_format": "hh-sol-artifact-1",
  "contractName": "LoanFunding",
  "sourceName": "contracts/LoanPooling.sol",
  "abi": [
    {
      "inputs": [
        {
          "internalType": "address",
          "name": "_borrower",
          "type": "address"
        },
        {
          "internalType": "uint256",
          "name": "_totalLoanAmount",
          "type": "uint256"
        }
      ],
      "stateMutability": "nonpayable",
      "type": "constructor"
    },
    {
      "anonymous": false,
      "inputs": [
        {
          "indexed": true,
          "internalType": "address",
          "name": "lender",
          "type": "address"
        },
        {
          "indexed": false,
          "internalType": "uint256",
          "name": "amount",
          "type": "uint256"
        }
      ],
      "name": "LoanFunded",
      "type": "event"
    },
    {
      "anonymous": false,
      "inputs": [
        {
          "indexed": true,
          "internalType": "address",
          "name": "borrower",
          "type": "address"
        },
        {
          "indexed": false,
          "internalType": "uint256",
          "name": "amount",
          "type": "uint256"
        }
      ],
      "name": "LoanPaidOut",
      "type": "event"
    },
    {
      "inputs": [],
      "name": "borrower",
      "outputs": [
        {
          "internalType": "address",
          "name": "",
          "type": "address"
        }
      ],
      "stateMutability": "view",
      "type": "function"
    },
    {
      "inputs": [],
      "name": "disburseLoan",
      "outputs": [],
      "stateMutability": "nonpayable",
      "type": "function"
    },
    {
      "inputs": [],
      "name": "fundLoan",
      "outputs": [],
      "stateMutability": "payable",
      "type": "function"
    },
    {
      "inputs": [
        {
          "internalType": "address",
          "name": "lender",
          "type": "address"
        }
      ],
      "name": "getLenderContribution",
      "outputs": [
        {
          "internalType": "uint256",
          "name": "",
          "type": "uint256"
        }
      ],
      "stateMutability": "view",
      "type": "function"
    },
    {
      "inputs": [],
      "name": "getLenders",
      "outputs": [
        {
          "internalType": "address[]",
          "name": "",
          "type": "address[]"
        }
      ],
      "stateMutability": "view",
      "type": "function"
    },
    {
      "inputs": [],
      "name": "getTotalContributed",
      "outputs": [
        {
          "internalType": "uint256",
          "name": "",
          "type": "uint256"
        }
      ],
      "stateMutability": "view",
      "type": "function"
    },
    {
      "inputs": [
        {
          "internalType": "address",
          "name": "",
          "type": "address"
        }
      ],
      "name": "lenderContributions",
      "outputs": [
        {
          "internalType": "uint256",
          "name": "",
          "type": "uint256"
        }
      ],
      "stateMutability": "view",
      "type": "function"
    },
    {
      "inputs": [
        {
          "internalType": "uint256",
          "name": "",
          "type": "uint256"
        }
      ],
      "name": "lenders",
      "outputs": [
        {
          "internalType": "address",
          "name": "",
          "type": "address"
        }
      ],
      "stateMutability": "view",
      "type": "function"
    },
    {
      "inputs": [],
      "name": "totalContributed",
      "outputs": [
        {
          "internalType": "uint256",
          "name": "",
          "type": "uint256"
        }
      ],
      "stateMutability": "view",
      "type": "function"
    },
    {
      "inputs": [],
      "name": "totalLoanAmount",
      "outputs": [
        {
          "internalType": "uint256",
          "name": "",
          "type": "uint256"
        }
      ],
      "stateMutability": "view",
      "type": "function"
    }
  ],
  "bytecode": "0x608060405234801561001057600080fd5b50604051610d95380380610d9583398181016040528101906100329190610121565b816000806101000a81548173ffffffffffffffffffffffffffffffffffffffff021916908373ffffffffffffffffffffffffffffffffffffffff1602179055508060018190555060006002819055505050610161565b600080fd5b600073ffffffffffffffffffffffffffffffffffffffff82169050919050565b60006100b88261008d565b9050919050565b6100c8816100ad565b81146100d357600080fd5b50565b6000815190506100e5816100bf565b92915050565b6000819050919050565b6100fe816100eb565b811461010957600080fd5b50565b60008151905061011b816100f5565b92915050565b6000806040838503121561013857610137610088565b5b6000610146858286016100d6565b92505060206101578582860161010c565b9150509250929050565b610c25806101706000396000f3fe6080604052600436106100915760003560e01c80635c8d40ac116100595780635c8d40ac1461016b5780637df1f1b9146101a857806382926875146101d35780638db57994146101fe578063929eea211461020857610091565b8063023f414714610096578063188874bd146100c157806318e4274d146100d85780633ab22009146101035780634c9e502e14610140575b600080fd5b3480156100a257600080fd5b506100ab610245565b6040516100b89190610771565b60405180910390f35b3480156100cd57600080fd5b506100d661024b565b005b3480156100e457600080fd5b506100ed610403565b6040516100fa9190610771565b60405180910390f35b34801561010f57600080fd5b5061012a600480360381019061012591906107ef565b61040d565b6040516101379190610771565b60405180910390f35b34801561014c57600080fd5b50610155610456565b6040516101629190610771565b60405180910390f35b34801561017757600080fd5b50610192600480360381019061018d91906107ef565b61045c565b60405161019f9190610771565b60405180910390f35b3480156101b457600080fd5b506101bd610474565b6040516101ca919061082b565b60405180910390f35b3480156101df57600080fd5b506101e8610498565b6040516101f59190610904565b60405180910390f35b610206610526565b005b34801561021457600080fd5b5061022f600480360381019061022a9190610952565b610719565b60405161023c919061082b565b60405180910390f35b60025481565b60008054906101000a900473ffffffffffffffffffffffffffffffffffffffff1673ffffffffffffffffffffffffffffffffffffffff163373ffffffffffffffffffffffffffffffffffffffff16146102d9576040517f08c379a00000000000000000000000000000000000000000000000000000000081526004016102d090610a02565b60405180910390fd5b6001546002541015610320576040517f08c379a000000000000000000000000000000000000000000000000000000000815260040161031790610a6e565b60405180910390fd5b60008054906101000a900473ffffffffffffffffffffffffffffffffffffffff1673ffffffffffffffffffffffffffffffffffffffff166108fc6001549081150290604051600060405180830381858888f19350505050158015610388573d6000803e3d6000fd5b5060008054906101000a900473ffffffffffffffffffffffffffffffffffffffff1673ffffffffffffffffffffffffffffffffffffffff167fcdd1ff6c27b0c3976dc53c1d73aeb8016923e7bdfce0173a49398e8ea72ffca46001546040516103f19190610771565b60405180910390a26000600281905550565b6000600254905090565b6000600360008373ffffffffffffffffffffffffffffffffffffffff1673ffffffffffffffffffffffffffffffffffffffff168152602001908152602001600020549050919050565b60015481565b60036020528060005260406000206000915090505481565b60008054906101000a900473ffffffffffffffffffffffffffffffffffffffff1681565b6060600480548060200260200160405190810160405280929190818152602001828054801561051c57602002820191906000526020600020905b8160009054906101000a900473ffffffffffffffffffffffffffffffffffffffff1673ffffffffffffffffffffffffffffffffffffffff16815260200190600101908083116104d2575b5050505050905090565b60003411610569576040517f08c379a000000000000000000000000000000000000000000000000000000000815260040161056090610b00565b60405180910390fd5b600154600254106105af576040517f08c379a00000000000000000000000000000000000000000000000000000000081526004016105a690610b6c565b60405180910390fd5b6000600360003373ffffffffffffffffffffffffffffffffffffffff1673ffffffffffffffffffffffffffffffffffffffff168152602001908152602001600020540361065a576004339080600181540180825580915050600190039060005260206000200160009091909190916101000a81548173ffffffffffffffffffffffffffffffffffffffff021916908373ffffffffffffffffffffffffffffffffffffffff1602179055505b34600360003373ffffffffffffffffffffffffffffffffffffffff1673ffffffffffffffffffffffffffffffffffffffff16815260200190815260200160002060008282546106a99190610bbb565b9250508190555034600260008282546106c29190610bbb565b925050819055503373ffffffffffffffffffffffffffffffffffffffff167f726d5f1a838fe31748f737fa3ae5539ccff95952adfc593a1299532b643ff7a83460405161070f9190610771565b60405180910390a2565b6004818154811061072957600080fd5b906000526020600020016000915054906101000a900473ffffffffffffffffffffffffffffffffffffffff1681565b6000819050919050565b61076b81610758565b82525050565b60006020820190506107866000830184610762565b92915050565b600080fd5b600073ffffffffffffffffffffffffffffffffffffffff82169050919050565b60006107bc82610791565b9050919050565b6107cc816107b1565b81146107d757600080fd5b50565b6000813590506107e9816107c3565b92915050565b6000602082840312156108055761080461078c565b5b6000610813848285016107da565b91505092915050565b610825816107b1565b82525050565b6000602082019050610840600083018461081c565b92915050565b600081519050919050565b600082825260208201905092915050565b6000819050602082019050919050565b61087b816107b1565b82525050565b600061088d8383610872565b60208301905092915050565b6000602082019050919050565b60006108b182610846565b6108bb8185610851565b93506108c683610862565b8060005b838110156108f75781516108de8882610881565b97506108e983610899565b9250506001810190506108ca565b5085935050505092915050565b6000602082019050818103600083015261091e81846108a6565b905092915050565b61092f81610758565b811461093a57600080fd5b50565b60008135905061094c81610926565b92915050565b6000602082840312156109685761096761078c565b5b60006109768482850161093d565b91505092915050565b600082825260208201905092915050565b7f4f6e6c792074686520626f72726f7765722063616e206469736275727365207460008201527f6865206c6f616e00000000000000000000000000000000000000000000000000602082015250565b60006109ec60278361097f565b91506109f782610990565b604082019050919050565b60006020820190508181036000830152610a1b816109df565b9050919050565b7f4c6f616e206973206e6f742066756c6c792066756e6465640000000000000000600082015250565b6000610a5860188361097f565b9150610a6382610a22565b602082019050919050565b60006020820190508181036000830152610a8781610a4b565b9050919050565b7f4c656e646572206d75737420636f6e74726962757465206d6f7265207468616e60008201527f207a65726f000000000000000000000000000000000000000000000000000000602082015250565b6000610aea60258361097f565b9150610af582610a8e565b604082019050919050565b60006020820190508181036000830152610b1981610add565b9050919050565b7f4c6f616e20616c72656164792066756c6c792066756e64656400000000000000600082015250565b6000610b5660198361097f565b9150610b6182610b20565b602082019050919050565b60006020820190508181036000830152610b8581610b49565b9050919050565b7f4e487b7100000000000000000000000000000000000000000000000000000000600052601160045260246000fd5b6000610bc682610758565b9150610bd183610758565b9250828201905080821115610be957610be8610b8c565b5b9291505056fea264697066735822122019d697cc83e385a7eefcaec3989cc3316d0d18a85399414b77448d2773a0154364736f6c634300081c0033",
  "linkReferences": {},
  "deployedLinkReferences": {}
}